:020000040800F2
:10000000300400209D0100087902000875020008F4
:1000100077020008E5010008010400080000000064
:10002000000000000000000000000000F9020008CD
:10003000E7010008000000007B02000899030008A7
:10004000B7010008B7010008B7010008B7010008B0
:10005000B7010008B7010008B7010008B7010008A0
:10006000B7010008B7010008B7010008B701000890
:10007000B7010008B7010008B7010008B701000880
:10008000B7010008B7010008B7010008B701000870
:10009000B7010008B7010008B7010008B701000860
:1000A000B7010008B7010008B7010008B701000850
:1000B000B7010008B7010008B7010008B701000840
:1000C000B7010008B7010008B7010008B701000830
:1000D000B7010008B7010008B7010008B701000820
:1000E000B7010008B7010008B7010008B701000810
:1000F000B7010008B7010008B7010008B701000800
:10010000B7010008B7010008B7010008B7010008EF
:10011000B7010008B7010008B7010008B7010008DF
:10012000B7010008B7010008B7010008B7010008CF
:10013000B7010008B7010008B7010008B7010008BF
:10014000B7010008B7010008B7010008B7010008AF
:10015000B7010008B7010008B7010008B70100089F
:10016000B7010008B7010008B7010008B70100088F
:10017000B7010008B7010008B7010008B70100087F
:10018000B7010008B7010008DFF80CD000F018F83C
:10019000004800472104000830040020064880473A
:1001A00006480047FEE7FEE7FEE7FEE7FEE7FEE75C
:1001B000FEE7FEE7FEE7FEE79D0300088901000871
:1001C000064C074D06E0E06840F0010394E80700A4
:1001D00098471034AC42F6D3FFF7DAFFC4040008A6
:1001E000E4040008FEE77047024908600868002838
:1001F000FCD1704700000020F0B5002201234FF031
:10020000030C00BF0D6803FA02F42540A5422DD16E
:10021000066854000CFA04F5AE4306600E790768D0
:10022000A6403E4306600E79012E01D0022E12D167
:100230008668AE4386604D798668A5403543856003
:10024000456803FA02F6B543456045688E799640E5
:10025000B6B235434560C56856000CFA06F7BD4393
:10026000C560CD79A540C4682543C560521C102ADD
:10027000C8D3F0BDFEE7FEE770477047044A002987
:10028000116801D0014300E0814311607047000014
:10029000303802401CB504460E48012150F82400B5
:1002A000FFF7ECFF0B480021083830F814000090ED
:1002B00001208DF804008DF806108DF8070002204B
:1002C0008DF805000448694650F82400FFF794FFB4
:1002D0001CBD0000B404000808000020044951F8C7
:1002E00020104A69034B33F8100042404A617047BE
:1002F00008000020AC0400087047000022490020DC
:100300000A6842F480320A604FF4A0630A6800F180
:10031000010012F4003F01D19842F7D10868800330
:1003200031D519484030026842F0805202601748C7
:10033000026842F48042026013480830026802609A
:10034000026842F400420260026842F4A052026075
:10035000031F0F4A1A600A6842F080720A600A6836
:100360009201FCD50B4A40F205611160016821F051
:1003700003010160016841F0020101600168C1F3FD
:1003800081010229FAD17047003802400070004014
:1003900008544007003C024000F028B80F4810B550
:1003A000016841F0010101600C4A0021083211602E
:1003B00002680B4B1A400260031D0A4A1A60026869
:1003C00022F48022026005480C300160FFF796FF9E
:1003D00005494FF00060086010BD00000038024081
:1003E000FFFFF6FE1030002408ED00E0034801682E
:1003F000002902D00168491E0160704700000020FA
:10040000FEE702E008C8121F08C1002AFAD17047AF
:100410007047002001E001C1121F002AFBD1704784
:100420000020FFF737FF0120FFF734FF0220FFF71E
:1004300031FF0320FFF72EFF17484FF47A71006851
:10044000B0FBF1F0B0F1807F25D220F07F414FF07A
:10045000E020491E4161114AF021117000218161A3
:10046000072101610120FFF739FF6420FFF7BCFE7F
:100470000020FFF733FF6420FFF7B6FE0220FFF7EE
:100480002DFF6420FFF7B0FE0320FFF727FF642055
:10049000FFF7AAFEE6E7FEE71800002023ED00E0E4
:1004A0000000060001000100010000000010002013
:1004B0000040008008000000080000000800000064
:1004C00008000000E4040008000000202C000000E8
:1004D00002040008100500082C000020040400009D
:1004E000120400080000000000000240000C02405E
:1004F000000C0240000C0240000C0240007A030A8B
:1005000000000000000000000102030406070809C3
:040000050800018965
:00000001FF
