:020000040800F2
:10000000000400209D010008ED010008E90100083E
:10001000EB010008E5010008E5020008000000000F
:10002000000000000000000000000000F1010008D6
:10003000E701000800000000EF010008910200083D
:10004000B7010008B7010008B7010008B7010008B0
:10005000B7010008B7010008B7010008B7010008A0
:10006000B7010008B7010008B7010008B701000890
:10007000B7010008B7010008B7010008B701000880
:10008000B7010008B7010008B7010008B701000870
:10009000B7010008B7010008B7010008B701000860
:1000A000B7010008B7010008B7010008B701000850
:1000B000B7010008B7010008B7010008B701000840
:1000C000B7010008B7010008B7010008B701000830
:1000D000B7010008B7010008B7010008B701000820
:1000E000B7010008B7010008B7010008B701000810
:1000F000B7010008B7010008B7010008B701000800
:10010000B7010008B7010008B7010008B7010008EF
:10011000B7010008B7010008B7010008B7010008DF
:10012000B7010008B7010008B7010008B7010008CF
:10013000B7010008B7010008B7010008B7010008BF
:10014000B7010008B7010008B7010008B7010008AF
:10015000B7010008B7010008B7010008B70100089F
:10016000B7010008B7010008B7010008B70100088F
:10017000B7010008B7010008B7010008B70100087F
:10018000B7010008B7010008DFF80CD000F018F83C
:100190000048004705030008000400200648804787
:1001A00006480047FEE7FEE7FEE7FEE7FEE7FEE75C
:1001B000FEE7FEE7FEE7FEE795020008890100087A
:1001C000064C074D06E0E06840F0010394E80700A4
:1001D00098471034AC42F6D3FFF7DAFFAC030008BF
:1001E000BC030008FEE77047FEE7FEE77047704774
:1001F00070470000224900200A6842F480320A60F9
:100200004FF4A0630A6800F1010012F4003F01D12D
:100210009842F7D10868800331D519484030026808
:1002200042F0805202601748026842F48042026045
:100230001348083002680260026842F4004202601B
:10024000026842F4A0520260031F0F4A1A600A6853
:1002500042F080720A600A689201FCD50B4A40F2B3
:1002600005611160016821F003010160016841F03E
:10027000020101600168C1F381010229FAD17047CE
:10028000003802400070004008544007003C024023
:10029000704700000F4810B5016841F0010101608E
:1002A0000C4A00210832116002680B4B1A400260B0
:1002B000031D0A4A1A60026822F48022026005487F
:1002C0000C300160FFF796FF05494FF000600860B1
:1002D00010BD000000380240FFFFF6FE1030002481
:1002E00008ED00E0FEE702E008C8121F08C1002A7E
:1002F000FAD170477047002001E001C1121F002AA7
:10030000FBD170472648016841F00801016025488B
:10031000016821F0AA410160016841F0AA41016031
:10032000204B4FF470401A3318804FF4005677007A
:100330009A1FDFF874804FF4805C151D4FF400495C
:100340001068C00402D5A3F800C001E0A5F800C001
:10035000404641460C00A1F10101FBD1116889041E
:1003600001D51E8000E02E8001460C00A1F10101A4
:10037000FBD11168490401D51F8000E02F800146A0
:100380000C00A1F10101FBD111680904494601D516
:10039000198000E029800100A0F10100FBD1CFE726
:1003A00030380240000C0240FFFF3F00BC03000851
:0C03B0000000002000040000F60200081D
:040000050800018965
:00000001FF
