:020000040800F2
:10000000400400209D0100088902000885020008C4
:1000100087020008E5010008210800080000000030
:1000200000000000000000000000000025030008A0
:10003000E701000800000000F1020008C503000805
:10004000B7010008B7010008B7010008B7010008B0
:10005000B7010008B7010008B7010008B7010008A0
:10006000B7010008B7010008B7010008B701000890
:10007000B7010008B7010008B7010008B701000880
:10008000B7010008B7010008B7010008B701000870
:10009000B7010008B7010008B7010008B701000860
:1000A000B7010008B7010008B7010008B701000850
:1000B000B7010008B701000819040008B7010008DB
:1000C000B7010008B7010008B7010008B701000830
:1000D000B7010008B7010008B7010008B701000820
:1000E000B7010008B7010008B7010008B701000810
:1000F000B7010008B7010008B7010008B701000800
:10010000B7010008B7010008B7010008B7010008EF
:10011000B7010008B7010008B7010008B7010008DF
:10012000B7010008B7010008B7010008B7010008CF
:10013000B7010008B7010008B7010008B7010008BF
:10014000B7010008B7010008B7010008B7010008AF
:10015000B7010008B7010008B7010008B70100089F
:10016000B7010008B7010008B7010008B70100088F
:10017000B7010008B7010008B7010008B70100087F
:10018000B7010008B7010008DFF80CD000F018F83C
:100190000048004741080008400400200648804706
:1001A00006480047FEE7FEE7FEE7FEE7FEE7FEE75C
:1001B000FEE7FEE7FEE7FEE7C90300088901000845
:1001C000064C074D06E0E06840F0010394E80700A4
:1001D00098471034AC42F6D3FFF7DAFFD008000896
:1001E000F0080008FEE77047F0B5002201234FF049
:1001F000030C00BF0D6803FA02F42540A5422DD17F
:10020000066854000CFA04F5AE4306600E790768E0
:10021000A6403E4306600E79012E01D0022E12D177
:100220008668AE4386604D798668A5403543856013
:10023000456803FA02F6B543456045688E799640F5
:10024000B6B235434560C56856000CFA06F7BD43A3
:10025000C560CD79A540C4682543C560521C102AED
:10026000C8D3F0BD4B07DB0E9A40C90810B500EBB0
:100270008100016A0F249C40A1430162016A11437D
:10028000016210BDFEE7FEE77047000070B50F2168
:10029000C478027801234FF0E026E4B1124C2468C0
:1002A00004F4E064C4F5E064C4F30724C4F1040575
:1002B000E1404478AC4085780D4025430B4C290142
:1002C0001155007800F01F018B40400906EB8000BB
:1002D000C0F8003170BD02F01F008340500906EBEA
:1002E0008000C0F8803170BD0CED00E000E400E05B
:1002F00070470000044A0029116801D0014300E062
:10030000814311607047000030380240044A0029E0
:10031000116801D0014300E0814311607047000083
:100320004038024070470000224900200A6842F429
:1003300080320A604FF4A0630A6800F1010012F4F1
:10034000003F01D19842F7D10868800331D51948A0
:100350004030026842F0805202601748026842F45E
:10036000804202601348083002680260026842F46A
:1003700000420260026842F4A0520260031F0F4A6A
:100380001A600A6842F080720A600A689201FCD51D
:100390000B4A40F205611160016821F00301016020
:1003A000016841F0020101600168C1F38101022985
:1003B000FAD17047003802400070004008544007EE
:1003C000003C0240704700000F4810B5016841F042
:1003D000010101600C4A00210832116002680B4BD8
:1003E0001A400260031D0A4A1A60026822F4802241
:1003F000026005480C300160FFF796FF05494FF099
:100400000060086010BD000000380240FFFFF6FEEB
:100410001030002408ED00E02DE9F041364C0221B7
:10042000204600F0C9F8354D60B10221204600F0A9
:100430006DF8204600F0B8F8298880B201442046C3
:1004400000F0A6F90421204600F0B6F82C4E60B169
:100450000421204600F05AF8204600F0A7F8318821
:1004600080B20144204600F095F90821204600F0B2
:10047000A3F8DFF8908068B10821204600F046F824
:10048000204600F095F8B8F8001080B201442046EC
:1004900000F082F91021204600F08EF81A4F60B16A
:1004A0001021204600F032F8204600F083F8398809
:1004B00080B20144204600F071F90121204600F08D
:1004C0007BF8002816D00121204600F01FF829886B
:1004D000204600F05DF93188204600F05BF9B8F85D
:1004E0000010204600F058F939882046BDE8F04158
:1004F00000F054B9BDE8F081000800400000002081
:10050000020000200400002006000020C9430182F0
:1005100070470029018802D041F0010101E021F07B
:1005200001010180704700003EB501210820FFF75E
:10053000E1FE01210420FFF7E9FE4FF47040009036
:1005400002208DF8040003208DF805000024154DCD
:100550008DF806408DF8074069462846FFF744FEAF
:1005600002220C212846FFF77DFE02220D2128469B
:10057000FFF778FE02220E212846FFF773FE0222C3
:100580000F212846FFF76EFE1E208DF808008DF81B
:1005900009408DF80A4001208DF80B0002A8FFF7F2
:1005A00075FE3EBD000C0240406B7047806B70478B
:1005B000C06B7047006C7047038A002280890B4231
:1005C00000EA010001D000B1012210467047002A64
:1005D000828901D00A4300E08A438281704700008B
:1005E00030B5028C22F001020284028C8388048BD5
:1005F00022F0020224F073050C882C438D891543E8
:100600004A882A430C4DA84202D00C4DA8420DD175
:1006100022F00805CA8923F440732A4322F0040516
:100620008A882A430D8A1D434B8A2B438380048387
:1006300089684163028430BD00000140000401402C
:1006400030B5028C22F010020284028C8388048B65
:1006500022F0200224F4E6450C88240645EA1444DE
:100660008D892D0542EA15454A88120545EA124250
:10067000104DA84202D0104DA84215D122F080059D
:10068000CA8923F44063120545EA124222F040056C
:100690008A88120545EA12420D8AAD0443EA1545DF
:1006A0004B8A9B0445EA13438380048389688163F2
:1006B000028430BD000001400004014030B5028CCE
:1006C00022F480720284028C8388848B22F400726C
:1006D00024F073050C882C438D892D0642EA1545BC
:1006E0004A88120645EA1242104DA84202D0104D27
:1006F000A84215D122F40065CA8923F4405312069A
:1007000045EA124222F480658A88120645EA1242BE
:100710000D8A2D0543EA15454B8A1B0545EA13430F
:10072000838084838968C163028430BD00000140F6
:100730000004014030B5028C22F480520284038C04
:100740008288848B4D8824F4E64C0C882D0724067F
:100750004CEA144423F4005C8B891B074CEA1343D6
:1007600043EA1545084B984202D0084B984205D100
:1007700022F480430A8A920543EA124282808483EB
:1007800089680164058430BD000001400004014017
:100790004163704781637047C1637047016470476C
:1007A00030B50288174B184C98420DD0A0420BD0A0
:1007B000B0F1804F08D0154DA84205D0144DA84285
:1007C00002D0144DA84204D122F0700C4A8842EAAB
:1007D0000C02114DA84207D0104DA84204D022F4BB
:1007E000407C0A8942EA0C0202804A68C2620A8896
:1007F0000285984201D0A04201D1897A0186012167
:10080000818230BD0000014000040140000400402E
:1008100000080040000C00400010004000140040A0
:10082000FEE702E008C8121F08C1002AFAD170478B
:100830007047002001E001C1121F002AFBD1704760
:10084000FFF772FE1E4844F62061002500681E4F27
:10085000B0FBF1F11B480180458042F2107141600C
:100860000581857201463846FFF79AFF154C302006
:100870000C34164E2080012060807088A060A58115
:1008800021463846FFF7ACFE3088A0602146384646
:10089000FFF7D6FEB088A06021463846FFF70EFF6E
:1008A000F088A06021463846FFF744FF0121384612
:1008B000FFF72FFE01221F213846FFF788FEFEE7D3
:1008C000080000201C00002000080040000000205C
:1008D000F0080008000000201C00000022080008AA
:1008E0000C0900081C000020240400003208000845
:1008F0000A006400E8031027007A030A00000000E1
:0C090000000000000102030406070809C3
:040000050800018965
:00000001FF
