:020000040800F2
:10000000380400209D0100088902000885020008CC
:1000100087020008E5010008ED0700080000000065
:1000200000000000000000000000000025030008A0
:10003000E701000800000000F1020008C503000805
:10004000B7010008B7010008B7010008B7010008B0
:10005000B7010008B7010008B7010008B7010008A0
:10006000B7010008B7010008B7010008B701000890
:10007000B7010008B7010008B7010008B701000880
:10008000B7010008B7010008B7010008B701000870
:10009000B7010008B7010008B7010008B701000860
:1000A000B7010008B7010008B7010008B701000850
:1000B000B7010008B701000819040008B7010008DB
:1000C000B7010008B7010008B7010008B701000830
:1000D000B7010008B7010008B7010008B701000820
:1000E000B7010008B7010008B7010008B701000810
:1000F000B7010008B7010008B7010008B701000800
:10010000B7010008B7010008B7010008B7010008EF
:10011000B7010008B7010008B7010008B7010008DF
:10012000B7010008B7010008B7010008B7010008CF
:10013000B7010008B7010008B7010008B7010008BF
:10014000B7010008B7010008B7010008B7010008AF
:10015000B7010008B7010008B7010008B70100089F
:10016000B7010008B7010008B7010008B70100088F
:10017000B7010008B7010008B7010008B70100087F
:10018000B7010008B7010008DFF80CD000F018F83C
:10019000004800470D080008380400200648804742
:1001A00006480047FEE7FEE7FEE7FEE7FEE7FEE75C
:1001B000FEE7FEE7FEE7FEE7C90300088901000845
:1001C000064C074D06E0E06840F0010394E80700A4
:1001D00098471034AC42F6D3FFF7DAFF90080008D6
:1001E000B0080008FEE77047F0B5002201234FF089
:1001F000030C00BF0D6803FA02F42540A5422DD17F
:10020000066854000CFA04F5AE4306600E790768E0
:10021000A6403E4306600E79012E01D0022E12D177
:100220008668AE4386604D798668A5403543856013
:10023000456803FA02F6B543456045688E799640F5
:10024000B6B235434560C56856000CFA06F7BD43A3
:10025000C560CD79A540C4682543C560521C102AED
:10026000C8D3F0BD4B07DB0E9A40C90810B500EBB0
:100270008100016A0F249C40A1430162016A11437D
:10028000016210BDFEE7FEE77047000070B50F2168
:10029000C478027801234FF0E026E4B1124C2468C0
:1002A00004F4E064C4F5E064C4F30724C4F1040575
:1002B000E1404478AC4085780D4025430B4C290142
:1002C0001155007800F01F018B40400906EB8000BB
:1002D000C0F8003170BD02F01F008340500906EBEA
:1002E0008000C0F8803170BD0CED00E000E400E05B
:1002F00070470000044A0029116801D0014300E062
:10030000814311607047000030380240044A0029E0
:10031000116801D0014300E0814311607047000083
:100320004038024070470000224900200A6842F429
:1003300080320A604FF4A0630A6800F1010012F4F1
:10034000003F01D19842F7D10868800331D51948A0
:100350004030026842F0805202601748026842F45E
:10036000804202601348083002680260026842F46A
:1003700000420260026842F4A0520260031F0F4A6A
:100380001A600A6842F080720A600A689201FCD51D
:100390000B4A40F205611160016821F00301016020
:1003A000016841F0020101600168C1F38101022985
:1003B000FAD17047003802400070004008544007EE
:1003C000003C0240704700000F4810B5016841F042
:1003D000010101600C4A00210832116002680B4BD8
:1003E0001A400260031D0A4A1A60026822F4802241
:1003F000026005480C300160FFF796FF05494FF099
:100400000060086010BD000000380240FFFFF6FEEB
:100410001030002408ED00E070B5304C0221204679
:1004200000F0B8F82E4D60B10221204600F05CF8D3
:10043000204600F0A7F8298880B20144204600F049
:100440008DF90421204600F0A5F860B10421204672
:1004500000F04AF8204600F097F8298880B201445D
:10046000204600F07DF90821204600F093F81D4E4B
:1004700060B10821204600F037F8204600F086F8E9
:10048000318880B20144204600F06CF910212046EA
:1004900000F080F860B11021204600F025F82046D9
:1004A00000F076F8318880B20144204600F05CF913
:1004B0000121204600F06EF800280DD001212046D1
:1004C00000F012F82988204600F048F931882046CB
:1004D000BDE8704000F044B970BD00000008004065
:1004E0000000002002000020C9430182704700295B
:1004F000018802D041F0010101E021F001010180F9
:10050000704700003EB501210820FFF7F3FE0121EE
:100510000420FFF7FBFE4FF47040009002208DF89E
:10052000040003208DF805000024154D8DF80640C9
:100530008DF8074069462846FFF756FE02220C2137
:100540002846FFF78FFE02220D212846FFF78AFE7C
:1005500002220E212846FFF785FE02220F2128469F
:10056000FFF780FE1E208DF808008DF809408DF8F9
:100570000A4001208DF80B0002A8FFF787FE3EBD60
:10058000000C0240406B7047806B7047C06B704737
:10059000006C7047038A002280890B4200EA010048
:1005A00001D000B1012210467047000030B5028C26
:1005B00022F001020284028C8388048B22F0020262
:1005C00024F073050C882C438D8915434A882A43EF
:1005D0000C4DA84202D00C4DA8420DD122F00805C6
:1005E000CA8923F440732A4322F004058A882A43E7
:1005F0000D8A1D434B8A2B438380048389684163A2
:10060000028430BD000001400004014030B5028C7E
:1006100022F010020284028C8388048B22F02002D4
:1006200024F4E6450C88240645EA14448D892D05FA
:1006300042EA15454A88120545EA1242104DA84281
:1006400002D0104DA84215D122F08005CA8923F4AA
:100650004063120545EA124222F040058A881205DD
:1006600045EA12420D8AAD0443EA15454B8A9B04C4
:1006700045EA13438380048389688163028430BD23
:10068000000001400004014030B5028C22F4807269
:100690000284028C8388848B22F4007224F0730518
:1006A0000C882C438D892D0642EA15454A8812068E
:1006B00045EA1242104DA84202D0104DA84215D171
:1006C00022F40065CA8923F44053120645EA124217
:1006D00022F480658A88120645EA12420D8A2D05A9
:1006E00043EA15454B8A1B0545EA134383808483FF
:1006F0008968C163028430BD0000014000040140EC
:1007000030B5028C22F480520284038C8288848B60
:100710004D8824F4E64C0C882D0724064CEA14443A
:1007200023F4005C8B891B074CEA134343EA15450D
:10073000084B984202D0084B984205D122F48043DE
:100740000A8A920543EA124282808483896801649E
:10075000058430BD00000140000401404163704742
:1007600081637047C16370470164704730B5028888
:10077000174B184C98420DD0A0420BD0B0F1804FCF
:1007800008D0154DA84205D0144DA84202D0144DF2
:10079000A84204D122F0700C4A8842EA0C02114DA2
:1007A000A84207D0104DA84204D022F4407C0A8908
:1007B00042EA0C0202804A68C2620A8802859842B4
:1007C00001D0A04201D1897A01860121818230BD08
:1007D0000000014000040140000400400008004007
:1007E000000C00400010004000140040FEE702E052
:1007F00008C8121F08C1002AFAD1704770470020AC
:1008000001E001C1121F002AFBD17047FFF77AFEF9
:100810001A481B49002500681B4FB0FBF1F119482D
:10082000491E0180458044F6206141600581857242
:1008300001463846FFF79AFF124C60200C34134EE5
:100840002080012060803088A060A5812146384644
:10085000FFF7ACFE21463846FFF7D8FE7088A0604F
:1008600021463846FFF710FF21463846FFF748FF7C
:1008700001213846FFF73BFEFEE7000004000020A0
:1008800080841E00180000200008004000000020A6
:10089000B00800080000002018000000EE07000863
:1008A000C80800081800002020040000FE07000807
:1008B000E803D007007A030A0000000000000000EF
:0808C000010203040607080908
:040000050800018965
:00000001FF
