:020000040800F2
:10000000200400209D0100089D03000899030008BA
:100010009B030008E5010008B90500080000000086
:100020000000000000000000000000009D04000827
:10003000E70100080000000005040008650500084D
:10004000B7010008B7010008B7010008B7010008B0
:10005000B7010008B7010008E9010008B70100086E
:10006000B7010008B7010008B7010008B701000890
:10007000B7010008B7010008B7010008B701000880
:10008000B7010008B7010008B7010008B701000870
:10009000B7010008B7010008B7010008B701000860
:1000A000B7010008B7010008B7010008B701000850
:1000B000B7010008B7010008B7010008B701000840
:1000C000B7010008B7010008B7010008B701000830
:1000D000B7010008B7010008B7010008B701000820
:1000E000B7010008B7010008B7010008B701000810
:1000F000B7010008B7010008B7010008B701000800
:10010000B7010008B7010008B7010008B7010008EF
:10011000B7010008B7010008B7010008B7010008DF
:10012000B7010008B7010008B7010008B7010008CF
:10013000B7010008B7010008B7010008B7010008BF
:10014000B7010008B7010008B7010008B7010008AF
:10015000B7010008B7010008B7010008B70100089F
:10016000B7010008B7010008B7010008B70100088F
:10017000B7010008B7010008B7010008B70100087F
:10018000B7010008B7010008DFF80CD000F018F83C
:1001900000480047D9050008200400200648804791
:1001A00006480047FEE7FEE7FEE7FEE7FEE7FEE75C
:1001B000FEE7FEE7FEE7FEE76905000889010008A3
:1001C000064C074D06E0E06840F0010394E80700A4
:1001D00098471034AC42F6D3FFF7DAFF1406000854
:1001E00034060008FEE7704710B5012000F04CF817
:1001F000002807D0002000F043F9BDE8104001209E
:1002000000F034B810BD00003EB50121084600F0F2
:10021000FBF80121880300F003F900258DF8085050
:1002200001248DF80B5001A90E48019400F076F8D6
:100230000021084600F034F90B48082104600571DC
:100240004171847100F030F806208DF800008DF8BF
:1002500001408DF802408DF80340684600F0A0F898
:100260003EBD00000000024000000020014908607F
:1002700070470000143C014002490A6802430A60CA
:1002800070470000103C0140064A014600201268F9
:10029000044B0A4014331B680B4202D0002A00D0E2
:1002A00001207047003C014030B51B49837902684A
:1002B00063B30B6893430B600A1D13680468A34380
:1002C000136002790A441368046823431360124AD6
:1002D000083213680468A3431360131D1C68056883
:1002E000AC431C6090F805C0BCF1100F05D0614410
:1002F0000A68006802430A6030BD1168046821433F
:100300001160196800680143196030BD0079084424
:1003100001689143016030BD003C0140F0B500220E
:1003200001234FF0030C00BF0D6803FA02F42540CF
:10033000A5422DD1066854000CFA04F5AE430660C0
:100340000E790768A6403E4306600E79012E01D063
:10035000022E12D18668AE4386604D798668A5402C
:1003600035438560456803FA02F6B5434560456844
:100370008E799640B6B235434560C56856000CFA92
:1003800006F7BD43C560CD79A540C4682543C56067
:10039000521C102AC8D3F0BDFEE7FEE770470000EC
:1003A00070B50F21C478027801234FF0E026E4B144
:1003B000124C246804F4E064C4F5E064C4F3072438
:1003C000C4F10405E1404478AC4085780D402543F4
:1003D0000B4C29011155007800F01F018B4040099A
:1003E00006EB8000C0F8003170BD02F01F008340B2
:1003F000500906EB8000C0F8803170BD0CED00E0C4
:1004000000E400E070470000044A0029116801D0B0
:10041000014300E081431160704700003038024022
:10042000044A0029116801D0014300E081431160B2
:1004300070470000443802401CB504460E480121B4
:1004400050F82400FFF7E0FF0B480021083830F88F
:100450001400009001208DF804008DF806108DF82E
:10046000070002208DF805000448694650F8240072
:10047000FFF754FF1CBD0000040600080C0000201C
:10048000044951F820104A69034B33F810004240E8
:100490004A6170470C000020FC050008704700000E
:1004A00010B58A0721F003040649130F21440F22D7
:1004B0000C689A4094430C600A68984002430A60B2
:1004C00010BD000008380140224900200A6842F4AB
:1004D00080320A604FF4A0630A6800F1010012F450
:1004E000003F01D19842F7D10868800331D51948FF
:1004F0004030026842F0805202601748026842F4BD
:10050000804202601348083002680260026842F4C8
:1005100000420260026842F4A0520260031F0F4AC8
:100520001A600A6842F080720A600A689201FCD57B
:100530000B4A40F205611160016821F0030101607E
:10054000016841F0020101600168C1F381010229E3
:10055000FAD170470038024000700040085440074C
:10056000003C0240704700000F4810B5016841F0A0
:10057000010101600C4A00210832116002680B4B36
:100580001A400260031D0A4A1A60026822F480229F
:10059000026005480C300160FFF796FF05494FF0F7
:1005A0000060086010BD000000380240FFFFF6FE4A
:1005B0001030002408ED00E0FEE702E008C8121F3A
:1005C00008C1002AFAD170477047002001E001C13C
:1005D000121F002AFBD170470020FFF72DFF0120DA
:1005E000FFF72AFFFFF710FE0120FFF745FEFEE7A9
:1005F00000000600010001000100000000100020C2
:100600000040008008000000080000000800000012
:100610000800000034060008000000201C00000054
:10062000BA050008500600081C0000200404000061
:10063000CA050008000000000000000000000240A1
:10064000000C0240000C0240000C0240000C024072
:040000050800018965
:00000001FF
