:020000040800F2
:10000000080400209D010008750200087102000824
:1000100073020008E50100088503000800000000E5
:100020000000000000000000000000009102000835
:10003000E701000800000000770200083103000813
:10004000B7010008B7010008B7010008B7010008B0
:10005000B7010008B7010008B7010008B7010008A0
:10006000B7010008B7010008B7010008B701000890
:10007000B7010008B7010008B7010008B701000880
:10008000B7010008B7010008B7010008B701000870
:10009000B7010008B7010008B7010008B701000860
:1000A000B7010008B7010008B7010008B701000850
:1000B000B7010008B7010008B7010008B701000840
:1000C000B7010008B7010008B7010008B701000830
:1000D000B7010008B7010008B7010008B701000820
:1000E000B7010008B7010008B7010008B701000810
:1000F000B7010008B7010008B7010008B701000800
:10010000B7010008B7010008B7010008B7010008EF
:10011000B7010008B7010008B7010008B7010008DF
:10012000B7010008B7010008B7010008B7010008CF
:10013000B7010008B7010008B7010008B7010008BF
:10014000B7010008B7010008B7010008B7010008AF
:10015000B7010008B7010008B7010008B70100089F
:10016000B7010008B7010008B7010008B70100088F
:10017000B7010008B7010008B7010008B70100087F
:10018000B7010008B7010008DFF80CD000F018F83C
:1001900000480047A50300080804002006488047DF
:1001A00006480047FEE7FEE7FEE7FEE7FEE7FEE75C
:1001B000FEE7FEE7FEE7FEE73503000889010008D9
:1001C000064C074D06E0E06840F0010394E80700A4
:1001D00098471034AC42F6D3FFF7DAFF3404000836
:1001E00054040008FEE77047F0B5002201234FF0E9
:1001F000030C00BF0D6803FA02F42540A5422DD17F
:10020000066854000CFA04F5AE4306600E790768E0
:10021000A6403E4306600E79012E01D0022E12D177
:100220008668AE4386604D798668A5403543856013
:10023000456803FA02F6B543456045688E799640F5
:10024000B6B235434560C56856000CFA06F7BD43A3
:10025000C560CD79A540C4682543C560521C102AED
:10026000C8D3F0BD4183704742694A40426170473C
:10027000FEE7FEE770477047044A0029116801D085
:10028000014300E0814311607047000030380240B4
:1002900070470000224900200A6842F480320A6058
:1002A0004FF4A0630A6800F1010012F4003F01D18D
:1002B0009842F7D10868800331D519484030026868
:1002C00042F0805202601748026842F480420260A5
:1002D0001348083002680260026842F4004202607B
:1002E000026842F4A0520260031F0F4A1A600A68B3
:1002F00042F080720A600A689201FCD50B4A40F213
:1003000005611160016821F003010160016841F09D
:10031000020101600168C1F381010229FAD170472D
:10032000003802400070004008544007003C024082
:10033000704700000F4810B5016841F001010160ED
:100340000C4A00210832116002680B4B1A4002600F
:10035000031D0A4A1A60026822F4802202600548DE
:100360000C300160FFF796FF05494FF00060086010
:1003700010BD000000380240FFFFF6FE10300024E0
:1003800008ED00E0FEE702E008C8121F08C1002ADD
:10039000FAD170477047002001E001C1121F002A06
:1003A000FBD1704701210820FFF766FF1E484FF47C
:1003B00070440121046001710021817103224271A6
:1003C000C1711A4D01462846FFF70EFF2146284607
:1003D000FFF748FF164FAE1431462846FFF744FF9B
:1003E0003C4638460100A0F10100FBD14FF400511A
:1003F0002846FFF739FF20460100A0F10100FBD19C
:100400004FF480412846FFF72FFF20460100A0F15E
:100410000100FBD14FF400412846FFF725FF2000E3
:10042000A4F10104FBD1D7E700000020000C02403A
:10043000FFFF3F00540400080000002008000000F7
:10044000860300085C040008080000200004000087
:0C045000960300080000000000000000FF
:040000050800018965
:00000001FF
